:10000000D4C100000C94CF0E0C94000F0C94310F4F
:100010000C94620F0C94930F0C94C40F0C94F50F76
:100020000C942610F3C10000F1C10000EFC10000E4
:10003000EDC100000C94700EE9C10000E7C10000A2
:10004000E5C10000E3C10000E1C10000DFC1000024
:10005000DDC10000DBC10000D9C100000C947C10A0
:10006000D5C100000C94FA0A0C94300BCFC10000EB
:10007000CDC10000CBC10000C9C10000C7C1000054
:100080000C949123C3C10000C1C10000BFC1000096
:100090000C94860B0C94BC0BB9C10000B7C10000D6
:1000A000B5C10000B3C10000B1C10000AFC1000084
:1000B000ADC10000ABC10000A9C10000A7C1000094
:1000C000A5C10000A3C10000A1C100000C949021B3
:1000D0009DC100009BC1000099C100000C94F62254
:1000E0000C94D4224F115211411145114B11891119
:1000F00056115A116011641168116E117211761146
:1001000089117C1180118411D81FE31F2420F52050
:10011000AF201521212105A84CCDB2D44EB93836D7
:10012000A9020C50B9918688083CA6AAAA2ABE004A
:100130000000803F6E616E00696E66006364696EE8
:100140006F70737578585B65666745464700616EEA
:10015000006E66696E69747900CDCCCC3D0AD723F8
:100160003C17B7D13877CC2B329595E6241FB14F89
:100170000A000020410000C84200401C4620BCBECE
:100180004CCA1B0E5AAEC59D740200000A0B020930
:100190000C0D0E0807030401000000000000000021
:1001A000000000000000000000000000000000004F
:1001B000000000000000121110000000000000000C
:1001C000000000000000000000000000000000002F
:1001D0000102102020080810204010204080020159
:1001E000020108040201010204081020408080403E
:1001F000201008040201800402018040201008043D
:1002000002010804020101020408102040800102DA
:1002100004081020408005050505070508080808A2
:10022000020202020A0A080804040404010101018E
:100230000101010103030303030303030407070789
:100240000C0C0C0C0C0C0C0C02020202060606062E
:10025000060606060B0B0B0B0B0B0B0B000020000E
:100260002300260029002C002F003200000100008E
:1002700003010601090100002200250028002B00CF
:100280002E003100340002010000050108010B01BD
:1002900000002100240027002A002D003000330038
:1002A00001010000040107010A0100407A10F35A1D
:1002B00000A0724E18090010A5D4E80000E87648A6
:1002C000170000E40B54020000CA9A3B000000E152
:1002D000F505000080969800000040420F000000E5
:1002E000A08601000000102700000000E8030000C5
:1002F00000006400000000000A000000000001008F
:10030000000000002C76D888DC674F0823DFC1DFAF
:10031000AE59E1B1B796E5E3E453C63AE6519976B2
:1003200096E8E6C28426EB898C9B62ED407C6FFCEC
:10033000EFBC9C9F40F2BAA56FA5F490055A2AF72E
:100340005C936B6CF9676DC11BFCE0E40D47FEF537
:1003500020E6B500D0ED902E03009435770500809F
:10036000841E080000204E0A000000C80C333333FE
:10037000330F986E12831141EF8D2114893BE6559E
:1003800016CFFEE6DB18D1844B381BF77C1D901D81
:10039000A4BBE424203284725E228100C9F124ECE3
:1003A000A1E53D27590BE50B6C0D11241FBECFEFC6
:1003B000D1E2DEBFCDBF00E00CBF14E0A0E0B2E0B0
:1003C000E0EDFAE500E00BBF02C007900D92AA3005
:1003D000B107D9F726E0AAE0B4E001C01D92A63526
:1003E000B207E1F711E0C5EDD1E000E006C02197CA
:1003F0000109802FFE010E944627C23DD10780E0FF
:100400000807A9F70E941D120C94662DF9CD2F92B2
:100410003F924F925F926F927F928F929F92AF9294
:10042000BF92CF92DF92EF92FF920F931F93CF93E1
:10043000DF93CDB7DEB763970FB6F894DEBF0FBE7C
:10044000CDBF6C014B012A01FC011782168283810A
:1004500081FF43C3AE014F5F5F4F3A01F6019381C5
:10046000F40193FD859193FF81914F01882309F455
:1004700030C3853239F493FD859193FF81914F010B
:10048000853239F4B60190E00E942F2C52012501EB
:10049000E5CF10E0F12C20E02032A0F48B3269F09F
:1004A00030F4803259F0833269F420612CC08D32EF
:1004B00039F0803339F4216026C02260246023C0E3
:1004C000286021C027FD27C030ED380F3A3078F47E
:1004D00026FF06C0FAE01F9F300D1124132F13C012
:1004E0004AE0F49E300D1124F32E20620CC08E32AF
:1004F00021F426FDEEC2206406C08C3611F420687B
:1005000002C0883641F4F40193FD859193FF8191F7
:100510004F018111C1CF9BEB980F933018F42061EC
:10052000805E06C09BE9980F933008F071C12F7E62
:1005300026FF16E02F73322E853619F42064322EF2
:1005400008C0863621F4F22FF0683F2E02C0111148
:10055000115037FE07C01C3350F4EE24E394E10E33
:1005600027E00BC0183038F027E017E005C027E07F
:100570004CE3E42E02C0212FE12C520144E0A40EF2
:10058000B11CF20160817181828193810E2DA301E2
:100590000E949E2A2C01098100FF02C003FF07C0B0
:1005A00031FC08C032FE09C030E2232E07C02DE224
:1005B000222E04C09BE2292E01C0212C802F8C709A
:1005C00019F0211068C2A8C237FE0FC0E40C04FF66
:1005D00004C08A81813309F4EA941E1474F5F8E0AA
:1005E000FE1578F588E0E82E2CC036FC2AC0812F55
:1005F00090E0841595059CF02CEF42162FEF5206E3
:1006000074F0432D4068342E0AC0E2E0F0E0EC0FB5
:10061000FD1FE10FF11D8081803319F4115011117C
:10062000F4CF37FE0EC0EE24E394E10E812F90E06C
:10063000481659062CF4141904C0EE24E39401C0A2
:1006400010E037FE06C01414150434F4C2010196FC
:1006500005C085E090E002C081E090E021100196A5
:10066000112331F0212F30E02F5F3F4F820F931F76
:100670002F2D30E08217930714F4F81A01C0F12CE3
:10068000832D897049F4FF2039F0B60180E290E0B3
:100690000E942F2CFA94F7CF222029F0B601822D48
:1006A00090E00E942F2C33FC09C0FF2039F0B601E6
:1006B00080E390E00E942F2CFA94F7CF37FE5AC0C7
:1006C000942D852D57FE02C090E080E0292E382E13
:1006D00020E030E0A2014E1951095D874C87A2014C
:1006E000421953095F874E87612F70E044275527D1
:1006F000461B570B598B488B5FEF2516350649F47F
:10070000B6018EE290E02A8B3B8B0E942F2C3B8916
:100710002A89421453046CF04C855D8542155305BB
:1007200044F4EE85FF85E20FF31FE60DF71D81818E
:1007300001C080E351E0251A31082F5F3F4F4889FF
:100740005989241635064CF0B60190E02A8B3B8B74
:100750000E942F2C2A893B89CFCF2414350439F4E9
:100760009A81963318F4953311F404FF81E3B601AE
:1007700090E04BC08A81813309F00F7EB60190E092
:100780000E942F2C111105C034FC18C085E690E0A2
:1007900017C0B6018EE290E00E942F2C82E0EE247A
:1007A000E394E80EF301E80FF11D8081B60190E0BB
:1007B0000E942F2C11508E2D91F7E6CF85E490E00A
:1007C000B6010E942F2C57FC05C04114510439F486
:1007D00004FF05C05194419451088DE201C08BE2A1
:1007E000B60190E00E942F2C80E39AE04916510454
:1007F0002CF08F5F5AE0451A5108F7CFB60190E010
:100800000E942F2CB601C201C0960E942F2C57C106
:10081000833631F0833779F0833509F058C021C031
:100820005201E2E0AE0EB11CF2018081898301E049
:1008300010E0230114C05201F2E0AF0EB11CF2012E
:100840004080518026FF03C0612F70E002C06FEF2F
:100850007FEFC2012A8B0E949C2B8C012A892F7763
:1008600015C05201F2E0AF0EB11CF2014080518080
:1008700026FF03C0612F70E002C06FEF7FEFC2015F
:100880002A8B0E94912B8C012A892068322E23FD0D
:100890001AC08F2D90E008171907A8F4B60180E25E
:1008A00090E00E942F2CFA94F4CFF20137FC85914E
:1008B00037FE81912F01B60190E00E942F2CF1109C
:1008C000FA94015011090115110579F7F8C0843621
:1008D00011F0893659F5520127FF09C0F4E0AF0E37
:1008E000B11CF20160817181828193810AC0F2E0C2
:1008F000AF0EB11CF20160817181072E000C880BD4
:10090000990B2F76322E97FF09C0909580957095A0
:1009100061957F4F8F4F9F4F2068322E2AE030E045
:10092000A3010E94E42CE82EE6183FC0022F853771
:1009300021F40F7E2AE030E01DC0097F8F3691F050
:1009400018F4883559F0C5C0803719F0883711F090
:10095000C0C0006104FF09C0046007C024FF08C0D4
:10096000066006C028E030E005C020E130E002C0AB
:1009700020E132E0520107FF09C0F4E0AF0EB11CE4
:10098000F201608171818281938108C0F2E0AF0E33
:10099000B11CF2016081718180E090E0A3010E94AE
:1009A000E42CE82EE6180F77302E36FE0BC0332DE0
:1009B0003E7FE11650F434FE0AC032FC08C0332DED
:1009C0003E7E05C00E2D332D03C00E2D01C0012F1C
:1009D00034FF0CC0FE01EE0DF11D8081803311F457
:1009E000397E08C032FF05C00E5F04C0832F8678B1
:1009F00009F00F5F33FD13C030FF06C01E2D0F1529
:100A000018F41F0D101B0F2D0F1568F4B60180E2AE
:100A100090E03B8B0E942F2C0F5F3B89F5CF0F1589
:100A200010F4F01A01C0F12C34FF12C0B60180E3BB
:100A300090E03B8B0E942F2C3B8932FF17C031FD89
:100A400003C088E790E002C088E590E0B6010CC0E2
:100A5000832F867859F031FF02C08BE201C080E21B
:100A600037FD8DE2B60190E00E942F2CE11638F49C
:100A7000B60180E390E00E942F2C1150F7CFEA944A
:100A8000F301EE0DF11D8081B60190E00E942F2C44
:100A9000E110F5CF14C0F4E0FF1558F584E0F81A22
:100AA00033FE1EC0211026C003FF2AC004E311E05C
:100AB000F32DF0713F2EF8018491811124C0FF20A5
:100AC00009F4E5CCB60180E290E00E942F2CFA9464
:100AD000F6CFF6018681978126C08FEF9FEF23C066
:100AE000B60180E290E00E942F2CFA94F110F8CF2A
:100AF000D9CFF12CB601822D90E00E942F2CD4CFBB
:100B000008E311E0D5CF31108052B60190E00E9489
:100B10002F2C0F5F1F4FCFCF23E02F1510F483E052
:100B2000BECFF12CC1CF63960FB6F894DEBF0FBED7
:100B3000CDBFDF91CF911F910F91FF90EF90DF908C
:100B4000CF90BF90AF909F908F907F906F905F906D
:100B50004F903F902F90089520FD09C0FC0123FD88
:100B600005C022FF02C073836283518340830895CE
:100B700044FD10C046FD10C0DB01FC01AA0FBB1FE5
:100B8000EE1FFF1F1094D1F76A0F7B1F8E1F9F1F50
:100B900031E003C033E001C034E0660F771F881FE7
:100BA000991F3150D1F7620F711D811D911D08955C
:100BB0000F931F93CF93DF938C01C8010E94F12BF9
:100BC000EC0197FD08C00E94762B892BB1F7B80184
:100BD000CE010E94CB2CCE01DF91CF911F910F91BE
:100BE00008958F929F92AF92BF92CF92DF92EF9231
:100BF000FF920F931F93CF93DF937C018B016A01C8
:100C0000D22F0E94F12B9C0133272B32310521F08A
:100C10002D32310559F4D0680150110911F480E0EA
:100C200067C0C7010E94F12B97FDF9CFCD2FCD7F73
:100C30002D2F207309F58033F9F4580181E0A81AAB
:100C4000B10809F442C0C7010E94F12B97FD3DC0D5
:100C5000282F2F7D283551F4C26402501109A9F1C3
:100C6000C7010E94F12B97FF07C02FC0D6FF02C01B
:100C7000C26001C0C2618501812C912C540120ED1C
:100C8000280F283080F0C4FF04C0B7010E94CB2C8D
:100C900019C02A3040F0C6FFF8CF2F7D3FEE320F4B
:100CA000363098F727504C2FC501B40161DF4B0156
:100CB0005C01C2600150110959F0C7010E94F12B7B
:100CC00097FFDDCFC1FD04C0AACF812C912C540128
:100CD000C7FF08C0B094A09490948094811C911C8C
:100CE000A11CB11C2C2FB501A401C60135DF81E088
:100CF000DF91CF911F910F91FF90EF90DF90CF90F8
:100D0000BF90AF909F908F9008954F925F926F9297
:100D10007F928F929F92AF92BF92CF92DF92EF928B
:100D2000FF920F931F93CF93DF93CDB7DEB7A097BA
:100D30000FB6F894DEBF0FBECDBF4C015B017A0148
:100D40008E010F5F1F4F680180E2F80111928A95B2
:100D5000E9F7F401638040E050E0712C412C80E021
:100D6000A1E0B0E0F90163FC559063FE51908F0162
:100D7000952D9F01511003C080E090E080C0FEE5FA
:100D80005F1203C04115510561F1682F70E06417CF
:100D900075074CF46DE5561669F1EDE25E1203C07D
:100DA000442009F103C0411001C0752C692F6695DC
:100DB00066956695F601E60FF11D692F67708D0146
:100DC00002C0000F111F6A95E2F7B8017081672B0E
:100DD0006083971559F0971510F49F5FE7CF9150F6
:100DE000E5CF81E004C04424439401C0412C4F5F0F
:100DF0005F4FB8CF442019F09E8190629E8381118D
:100E000003C07724739418C0F6019E012F5D3F4FF5
:100E1000808180958193E217F307D1F7F2CFE11437
:100E2000F10429F0F7018083C70101967C0191E06C
:100E3000A91AB108712CE9F0C4010E94F12B97FDA9
:100E400016C0282F269526952695F601E20FF11D4E
:100E5000208130E0AC014770552702C035952795B9
:100E60004A95E2F720FDDBCFB4010E94CB2C711034
:100E700083CFE114F10411F0F7011082C801A096AC
:100E80000FB6F894DEBF0FBECDBFDF91CF911F919B
:100E90000F91FF90EF90DF90CF90BF90AF909F9019
:100EA0008F907F906F905F904F9008952F923F9218
:100EB0004F925F926F927F928F929F92AF92BF926A
:100EC000CF92DF92EF92FF920F931F93CF93DF9316
:100ED00000D000D0CDB7DEB75C017B011A010E94C3
:100EE000F12B9E838D8399278B32910521F08D976D
:100EF00089F410E801C010E021E0E21AF10811F4D1
:100F000080E028C1C5010E94F12B9E838D8397FF4D
:100F100002C0F6CF10E08D819E810E947E2B893623
:100F2000910549F08E36910509F03BC06EE4862E9E
:100F300061E0962E04C071E5872E71E0972EEFEFE9
:100F40008E1A9E0AF401319704910023C9F081E0C2
:100F5000E81AF10871F0C5010E94F12B6C0197FDB0
:100F600008C00E947E2B081751F3B501C6010E94EC
:100F7000CB2C94E5891691E0990609F0C1CF05C004
:100F8000F1E58F16F1E09F0629F080E090E0A0E8FF
:100F9000BFE704C080E090E0A0ECBFE7BC01CD015A
:100FA000C9C0412C512C3201C12CD12C2D81205390
:100FB0002A3010F5012F0260812F887012FF06C0C1
:100FC000811120C02FEFC21AD20A1CC0882319F049
:100FD00081E0C81AD10840E2C301B201C9DD2B018A
:100FE0003C0198E9491699E95906690699E179069B
:100FF00048F0012F066006C02E3F91F413FD10C08B
:10100000012F0860E1E0EE1AF10849F0C5010E94E5
:10101000F12B9E838D83102F97FFC8CF01C0102F17
:1010200011FF6ECF8D818F7D853409F04DC0470152
:10103000F1E08F1A910809F463CFC5010E94F12BEA
:101040009E838D8397FD5CCF99278B32910519F094
:101050008D9761F41061470122E0821A910809F42A
:101060004FCFC5010E94F12B9E838D838D819E8180
:10107000C0970A9708F044CF7401812C912CB401D9
:10108000990C880B990B2D81205340E271DDAB0147
:10109000BC014A0181E0E81AF10871F0C5014983F9
:1010A0005A836B837C830E94F12B9E838D83C09730
:1010B00049815A810A9718F314FF04C0882499249F
:1010C000841A950AC80CD91CEF2841F0ED81FE81E5
:1010D000F7FD04C0B501CF010E94CB2CC301B201C2
:1010E00098D1D7FE08C0D194C194D1085DE6852E71
:1010F00051E0952E04C045E8842E41E0942E540121
:10110000F8E1AF1AB10830E2E32EF12CCE14DF047F
:1011100048F0F4012591359145915491B7D1CE18FD
:10112000DF08F4CF24E0821A9108F694E7948A1439
:101130009B0461F717FF05C0DC01CB01B058BC016F
:10114000CD012114310429F0F10160837183828380
:10115000938381E026960FB6F894DEBF0FBECDBF15
:10116000DF91CF911F910F91FF90EF90DF90CF9083
:10117000BF90AF909F908F907F906F905F904F90B7
:101180003F902F9008954F925F926F927F928F922F
:101190009F92AF92BF92CF92DF92EF92FF920F9306
:1011A0001F93CF93DF931F92CDB7DEB76C012B0156
:1011B0004A01FC0117821682A12CF601F380F2018C
:1011C000F3FC8591F3FE8191482F2F01882309F4C8
:1011D00009C190E049830E94762B4981892B19F03F
:1011E000C601E6DCEACF453241F4F201F3FC459159
:1011F000F3FE41912F01453269F4C60149830E94F3
:10120000F12B498197FDECC04817B9F2B6010E9455
:10121000CB2CE8C04A3239F4F3FC4591F3FE4191FE
:101220002F0151E001C050E0320100E010E020ED5C
:10123000240F2A3080F45260B80180E090E040E250
:10124000598396DC8B01F301F3FC4591F3FE419148
:101250003F015981ECCFB52E342F230151FF04C03B
:101260000115110519F4BEC00FEF1FEF483619F034
:101270004C3659F013C0F301F3FC3591F3FE319174
:101280002F01383659F45860B52EFB2DF460BF2E6F
:10129000F201F3FC3591F3FE31912F01332309F470
:1012A000A1C0632F70E08CE391E039830E94862B0C
:1012B0003981892B09F496C0B0FC07C0F401E080A5
:1012C000F180C40102964C0102C0E12CF12C3E36A3
:1012D00049F4F6014681578160E070E02B2DC7018B
:1012E0003BDC6BCF3336A9F4B1FC02C001E010E067
:1012F000C6010E94F12B97FD73C0E114F10429F09F
:10130000F7018083C70101967C010150110981F723
:1013100063C03B3551F49201A701B801C601F5DC69
:101320002C01892B09F058C052C0C601398340DC1A
:10133000398197FD55C03F36D9F140F43436A1F1DB
:101340003936C9F1383509F03CC02AC03337A1F02D
:1013500018F4303729F135C0353731F1383701F11C
:1013600030C0E114F10429F0F7016082C701019651
:101370007C010150110971F0C6010E94F12B3C0162
:1013800097FD08C00E94762B892B59F3B601C30143
:101390000E94CB2CE114F104F9F0F70110821CC07B
:1013A000FB2DF064BF2E07C08B2D8062B82E03C0CA
:1013B0009B2D9061B92E2B2DA701B801C60111DC20
:1013C00004C0A701B801C60171DD811105C0F60195
:1013D0008381807329F406C0B0FCEFCEA394EDCED8
:1013E000AA2019F08A2D90E002C08FEF9FEF0F9096
:1013F000DF91CF911F910F91FF90EF90DF90CF90F1
:10140000BF90AF909F908F907F906F905F904F9024
:101410000895E89409C097FB3EF4909580957095E7
:1014200061957F4F8F4F9F4F9923A9F0F92F96E930
:10143000BB279395F695879577956795B795F111A5
:10144000F8CFFAF4BB0F11F460FF1BC06F5F7F4F42
:101450008F4F9F4F16C0882311F096E911C0772354
:1014600021F09EE8872F762F05C0662371F096E85D
:10147000862F70E060E02AF09A95660F771F881F2C
:10148000DAF7880F9695879597F908950BD078C06D
:1014900069D028F06ED018F0952309F05AC05FC0CB
:1014A0001124A2C07ED0A0F3959FD1F3950F50E0F8
:1014B000551F629FF001729FBB27F00DB11D639F06
:1014C000AA27F00DB11DAA1F649F6627B00DA11DAC
:1014D000661F829F2227B00DA11D621F739FB00D52
:1014E000A11D621F839FA00D611D221F749F3327C2
:1014F000A00D611D231F849F600D211D822F762F5B
:101500006A2F11249F5750408AF0E1F088234AF057
:10151000EE0FFF1FBB1F661F771F881F91505040A3
:10152000A9F79E3F510570F014C05EC05F3FECF319
:10153000983EDCF3869577956795B795F795E7958F
:101540009F5FC1F7FE2B880F911D9695879597F9A0
:10155000089597F99F6780E870E060E008959FEF35
:1015600080EC089500240A9416161706180609063A
:10157000089500240A941216130614060506089509
:10158000092E0394000C11F4882352F0BB0F40F491
:10159000BF2B11F460FF04C06F5F7F4F8F4F9F4FD1
:1015A000089557FD9058440F551F59F05F3F71F053
:1015B0004795880F97FB991F61F09F3F79F08795BA
:1015C0000895121613061406551FF2CF4695F1DF43
:1015D00008C0161617061806991FF1CF86957105D3
:1015E000610508940895E894BB2766277727CB0107
:1015F00097F908951F920F920FB60F9211240BB610
:101600000F922F938F939F93EF93FF93E0911A0480
:10161000F0911B048081E0912004F091210482FD6F
:1016200012C09081809123048F5F8F7320912404D6
:10163000821751F0E0912304F0E0E65FFB4F958FB5
:101640008093230401C08081FF91EF919F918F913E
:101650002F910F900BBE0F900FBE0F901F901895FB
:101660001F920F920FB60F9211240BB60F922F9369
:101670003F934F935F936F937F938F939F93AF931A
:10168000BF93EF93FF938AE094E0FAD0FF91EF913C
:10169000BF91AF919F918F917F916F915F914F918A
:1016A0003F912F910F900BBE0F900FBE0F901F9088
:1016B0001895EAE0F4E01382128288EE93E0A0E04D
:1016C000B0E084839583A683B78383E493E091831A
:1016D000808385EC90E09587848784EC90E0978701
:1016E000868780EC90E0918B808B81EC90E0938BEF
:1016F000828B82EC90E0958B848B86EC90E0978BCC
:10170000868B118E128E138E148E08951F920F9257
:101710000FB60F9211240BB60F922F938F939F93B6
:10172000EF93FF93E091B704F091B8048081E091CA
:10173000BD04F091BE0482FD12C090818091C0046E
:101740008F5F8F732091C104821751F0E091C00424
:10175000F0E0E955FB4F958F8093C00401C0808174
:10176000FF91EF919F918F912F910F900BBE0F9052
:101770000FBE0F901F9018951F920F920FB60F92E9
:1017800011240BB60F922F933F934F935F936F9358
:101790007F938F939F93AF93BF93EF93FF9387EACA
:1017A00094E06ED0FF91EF91BF91AF919F918F9197
:1017B0007F916F915F914F913F912F910F900BBE51
:1017C0000F900FBE0F901F901895E7EAF4E0138278
:1017D000128288EE93E0A0E0B0E084839583A68334
:1017E000B78383E493E0918380838DEC90E09587C9
:1017F00084878CEC90E09787868788EC90E0918BCB
:10180000808B89EC90E0938B828B8AEC90E0958BB7
:10181000848B8EEC90E0978B868B118E128E138EBC
:10182000148E0895FC01918D228D892F90E0805CAB
:101830009F4F821B91098F7399270895FC01918D09
:10184000828D981731F0828DE80FF11D858D90E023
:1018500008958FEF9FEF0895FC01918D828D981769
:1018600061F0828DDF01A80FB11D5D968C91928D84
:101870009F5F9F73928F90E008958FEF9FEF089581
:10188000FC01848DDF01A80FB11DA35ABF4F2C911D
:10189000848D90E001968F739927848FA689B789EC
:1018A0002C93A089B1898C9180648C93938D848DC5
:1018B000981306C00288F389E02D80818F7D808394
:1018C0000895CF93DF93EC01888D8823C1F0EA89D6
:1018D000FB89808185FD05C0A889B9898C9186FD29
:1018E0000EC00FB607FCF5CF808185FFF2CFA88927
:1018F000B9898C9185FFEDCFCE01C2DFE8CFDF91B2
:10190000CF910895EF92FF920F931F93CF93DF93A0
:10191000EC0181E0888F9B8D8C8D981305C0E88940
:10192000F989808185FD23C0F62E0B8D10E00F5FB5
:101930001F4F0F731127E02E8C8DE8120BC00FB6CE
:1019400007FCFACFE889F989808185FFF5CFCE01C0
:1019500097DFF2CF8B8DFE01E80FF11DE35AFF4FA9
:10196000F0820B8FEA89FB898081806207C0EE8953
:10197000FF896083E889F98980818064808381E0C0
:1019800090E0DF91CF911F910F91FF90EF9008951C
:10199000CF92DF92EF92FF921F93CF93DF93EC01F0
:1019A0006A017B01122FE889F98982E08083411561
:1019B000514E61057105B1F060E079E08DE390E092
:1019C000A70196010E942427DA01C9010197A10904
:1019D000B109B695A79597958795AC01411580E11A
:1019E0005807A8F0E889F989108260E874E88EE168
:1019F00090E0A70196010E942427BA01A901415055
:101A00005109610971097695679557954795EC8558
:101A1000FD855083EE85FF854083188EEC89FD8916
:101A20001083EA89FB89808180618083EA89FB8950
:101A3000808188608083EA89FB89808180688083D7
:101A4000EA89FB8980818F7D8083DF91CF911F910F
:101A5000FF90EF90DF90CF9008958F929F92AF927A
:101A6000BF92CF92DF92EF92FF920F931F93CF938B
:101A7000DF937C018B016C0182E0C80ED11C470111
:101A8000E5E08E0E911CC0E0D0E0F60161916F019F
:101A90004AE050E0C801D0D05C016EE2C80164D0D9
:101AA0008A0D9B1DC80FD91FC814D90471F74AE0CD
:101AB00050E0F7016581C801BFD08C0F9D1FDF91F9
:101AC000CF911F910F91FF90EF90DF90CF90BF903B
:101AD000AF909F908F900895E4E4F5E083E593E064
:101AE0009183808312821382148215820895CF928B
:101AF000DF92EF92FF920F931F93CF93DF936C01CE
:101B0000EB017B01E40EF51E00E010E0CE15DF05D1
:101B100061F06991D601ED91FC910190F081E02D89
:101B2000C6011995080F191FF1CFC801DF91CF9198
:101B30001F910F91FF90EF90DF90CF900895611566
:101B4000710579F0FB0101900020E9F73197AF01B1
:101B5000461B570BDC01ED91FC910280F381E02DD7
:101B6000199480E090E00895DC01ED91FC910190E2
:101B7000F081E02D19948F929F92AF92BF92CF92F5
:101B8000DF92EF92FF920F931F93CF93DF93CDB726
:101B9000DEB7A1970FB6F894DEBF0FBECDBF6C01C4
:101BA000142FE52FCB01022F19A2223008F40AE0EE
:101BB0007E0121E2E20EF11C802E912CA12CB12C91
:101BC000612F7E2FA50194010E942427029F1019E6
:101BD000112481E0E81AF1081A3014F4105D01C0F4
:101BE000195CF7011083122FE32FCA01232B242B3A
:101BF000252B31F7B701C601A2DFA1960FB6F894E5
:101C0000DEBF0FBECDBFDF91CF911F910F91FF902F
:101C1000EF90DF90CF90BF90AF909F908F900895FE
:101C20002115310541F4DC01ED91FC910190F08129
:101C3000E02D642F19949FCF9A01462F50E060E069
:101C400070E0EECF8230A9F028F4882349F081308B
:101C500051F00895843021F1E8F0853039F108958C
:101C600010926E00089580916F008D7F80936F00B9
:101C70000895809170008D7F8093700081E0809343
:101C8000B0008091B100887F84608093B100109291
:101C9000B3000895809171008D7F80937100089545
:101CA000809172008D7F80937200089580917300FF
:101CB0008D7F809373000895CF93C82F8091060283
:101CC0008C1307C0E9E8F1E0E4918FEF80930602FE
:101CD00001C0EFEF8E2FB6DF60E08C2FCF9156C39F
:101CE0001F920F920FB60F9211240BB60F922F93E3
:101CF0003F934F935F936F937F938F939F93AF9394
:101D0000BF93EF93FF9380914D0590914E05A09165
:101D10004F05B0915005892B8A2B8B2B51F1809167
:101D20004A05E0914B05F0914C059081892780830D
:101D300080914D0590914E05A0914F05B0915005B1
:101D4000181619061A061B06BCF480914D059091D1
:101D50004E05A0914F05B09150050197A109B10919
:101D600080934D0590934E05A0934F05B093500579
:101D700003C080910602A0DFFF91EF91BF91AF9168
:101D80009F918F917F916F915F914F913F912F9193
:101D90000F900BBE0F900FBE0F901F9018951F92C3
:101DA0000F920FB60F9211240BB60F922F933F9301
:101DB0004F935F936F937F938F939F93AF93BF9353
:101DC000EF93FF938091550590915605892B29F04B
:101DD000E0915505F09156051995FF91EF91BF914E
:101DE000AF919F918F917F916F915F914F913F91B3
:101DF0002F910F900BBE0F900FBE0F901F90189554
:101E00001F920F920FB60F9211240BB60F922F93C1
:101E10003F934F935F936F937F938F939F93AF9372
:101E2000BF93EF93FF938091570590915805892BAD
:101E300029F0E0915705F09158051995FF91EF9120
:101E4000BF91AF919F918F917F916F915F914F91D2
:101E50003F912F910F900BBE0F900FBE0F901F90D0
:101E600018951F920F920FB60F9211240BB60F9276
:101E70002F933F934F935F936F937F938F939F9392
:101E8000AF93BF93EF93FF938091590590915A05BB
:101E9000892B29F0E0915905F0915A051995FF9188
:101EA000EF91BF91AF919F918F917F916F915F91D2
:101EB0004F913F912F910F900BBE0F900FBE0F903F
:101EC0001F9018951F920F920FB60F9211240BB608
:101ED0000F922F933F934F935F936F937F938F93C3
:101EE0009F93AF93BF93EF93FF9380915B05909186
:101EF0005C05892B29F0E0915B05F0915C05199553
:101F0000FF91EF91BF91AF919F918F917F916F91D1
:101F10005F914F913F912F910F900BBE0F900FBE8D
:101F20000F901F9018951F920F920FB60F921124C9
:101F30000BB60F922F933F934F935F936F937F93C3
:101F40008F939F93AF93BF93EF93FF93809151052E
:101F500090915205892B29F0E0915105F09152059D
:101F60001995FF91EF91BF91AF919F918F917F91C3
:101F70006F915F914F913F912F910F900BBE0F90FA
:101F80000FBE0F901F9018951F920F920FB60F92D1
:101F900011240BB60F922F933F934F935F936F9340
:101FA0007F938F939F93AF93BF93EF93FF93809112
:101FB000530590915405892B29F0E0915305F09138
:101FC00054051995FF91EF91BF91AF919F918F911A
:101FD0007F916F915F914F913F912F910F900BBE29
:101FE0000F900FBE0F901F9018951F920F920FB673
:101FF0000F9211240BB60F922F933F934F935F9341
:102000006F937F938F939F93AF93BF93EF93FF93C0
:1020100080915D0590915E05892B29F0E0915D0529
:10202000F0915E051995FF91EF91BF91AF919F914E
:102030008F917F916F915F914F913F912F910F9071
:102040000BBE0F900FBE0F901F9018951F920F920E
:102050000FB60F9211240BB60F922F933F934F930D
:102060005F936F937F938F939F93AF93BF93EF9300
:10207000FF9380915F0590916005892B29F0E09195
:102080005F05F09160051995FF91EF91BF91AF91B8
:102090009F918F917F916F915F914F913F912F9180
:1020A0000F900BBE0F900FBE0F901F9018958633A8
:1020B00008F0865390917B00282F2870977F922BF1
:1020C00090937B0087702091070290E4299F9001F4
:1020D0001124822B80937C0080917A00806480930D
:1020E0007A0080917A0086FDFCCF80917800209163
:1020F000790090E0922B08951F920F920FB60F92E5
:1021000011242F933F938F939F93AF93BF9380910D
:10211000620590916305A0916405B09165053091C9
:10212000610523E0230F2D3720F40196A11DB11D79
:1021300005C026E8230F0296A11DB11D209361055D
:102140008093620590936305A0936405B093650541
:102150008091660590916705A0916805B091690529
:102160000196A11DB11D8093660590936705A0930C
:102170006805B0936905BF91AF919F918F913F9191
:102180002F910F900FBE0F901F9018952FB7F894B6
:102190006091620570916305809164059091650579
:1021A0002FBF0895789484B5826084BD84B5816022
:1021B00084BD85B5826085BD85B5816085BDEEE64F
:1021C000F0E0808181608083E1E8F0E0108280812E
:1021D00082608083808181608083E0E8F0E080819C
:1021E00081608083E1EBF0E0808184608083E0EBBC
:1021F000F0E0808181608083E1E9F0E080818260AD
:102200008083808181608083E0E9F0E0808181606B
:102210008083E1EAF0E08081826080838081816058
:102220008083E0EAF0E0808181608083E1E2F1E098
:10223000808182608083808181608083E0E2F1E040
:10224000808181608083EAE7F0E080818460808320
:1022500080818260808380818160808380818068CA
:1022600080831092C100089590E0FC013197E23123
:10227000F10508F04EC08827EE58FF4F8F4F0C94A1
:102280004627809180008F7703C0809180008F7DEA
:1022900080938000089580918000877FF9CF84B576
:1022A0008F7702C084B58F7D84BD08958091B00082
:1022B0008F7703C08091B0008F7D8093B000089528
:1022C000809190008F7707C0809190008F7D03C030
:1022D00080919000877F8093900008958091A00066
:1022E0008F7707C08091A0008F7D03C08091A000F0
:1022F000877F8093A0000895809120018F7707C089
:10230000809120018F7D03C080912001877F809381
:1023100020010895CF93DF9390E0FC01E053FE4F3E
:102320002491FC01EA5EFD4F8491882361F190E0E5
:10233000880F991FFC01E057FD4FC591D491FC0116
:10234000EA58FD4FA591B491611109C09FB7F89467
:102350008881209582238883EC912E230BC06230E4
:1023600061F49FB7F8943881822F80958323888306
:10237000EC912E2B2C939FBF06C08FB7F894E88169
:102380002E2B28838FBFDF91CF9108951F93CF937A
:10239000DF93282F30E0F901E657FE4F8491F901D1
:1023A000E053FE4FD491F901EA5EFD4FC491CC2376
:1023B000C1F0162F811158DFEC2FF0E0EE0FFF1F58
:1023C000EA58FD4FA591B4918FB7F894111105C04B
:1023D0009C91ED2FE095E92302C0EC91ED2BEC935D
:1023E0008FBFDF91CF911F910895CF93DF93282F57
:1023F00030E0F901E657FE4F8491F901E053FE4FBA
:10240000D491F901EA5EFD4FC491CC2389F081118A
:102410002BDFEC2FF0E0EE0FFF1FE45AFD4FA591EC
:10242000B491EC91ED2381E090E021F480E002C0D2
:1024300080E090E0DF91CF910895CF93DF93CDB707
:10244000DEB7CA5BD1400FB6F894DEBF0FBECDBF7A
:102450000E941F1F97E3A92E92E0B92E812C912C88
:1024600024E1522E589C3001599C700C112421E01B
:1024700030E02C0F3D1F620E731ED5011896CD90D3
:10248000DD90ED90FC901B9714960D911D912D9170
:102490003C9117974D915D916D917C91CE01895939
:1024A0009E4F0E942B1CFE01E959FE4FD301852D42
:1024B00001900D928A95E1F7BFEF8B1A9B0AECE031
:1024C000AE0EB11CF6E08F16910461F6FE01E25EDD
:1024D000FE4F88E1DF01282F1D922A95E9F77897B2
:1024E000DF01282F1D922A95E9F77897DF011D92C9
:1024F0008A95E9F7F19789E1DF011D928A95E9F75D
:102500002DB73EB73A950FB6F8943EBF0FBE2DBF1C
:102510004DB75EB74F5F5F4FC556DE4F5983488357
:10252000CB59D140C455DE4F1882CC5AD140C35547
:10253000DE4F188219821A821B82CD5AD140312C6B
:10254000CD55DE4F19821882C35AD140C356DE4F93
:10255000188219821A821B82CD59D140C855DE4F8C
:10256000188219821A821B82C85AD140CF01449620
:10257000C754DE4F99838883C95BD140DE01AA52DC
:10258000BF4FCD56DE4FB983A883C359D140E45421
:10259000F109CB56DE4FF983E883C559D1409E013E
:1025A0002A5C3E4FC956DE4F39832883C759D14034
:1025B000AE014C595E4FC756DE4F59834883C95907
:1025C000D1400E9486228F3FFFEF9F0709F470C41D
:1025D000CD55DE4FA881B981C35AD140AF3FB10577
:1025E000A1F098F020E031E0C556DE4FE881F98196
:1025F000CB59D140A901119241505040E1F7CD553E
:10260000DE4F19821882C35AD140CD55DE4F288142
:102610003981C35AD1402F5F3F4FC556DE4FE88105
:10262000F981CB59D140CD55DE4FA881B981C35A2C
:10263000D140EA0FFB1F80830A9709F028C42E01BE
:10264000BAE94B1ABEEF5B0A5F924F9285E593E0C1
:102650009F938F93C456DE4FE881CC59D140EF93BE
:10266000C556DE4FF881CB59D140FF930E94A92C6B
:102670000F900F900F900F900F900F90019769F4AB
:102680001F923F928AE593E09F938F930E9472225C
:102690000F900F900F900F90E2C38E010E5B1E4FB4
:1026A0001F930F937E0122EBE21A2EEFF20AFF92A4
:1026B000EF926E013EEAC31A3EEFD30ADF92CF9249
:1026C0005E014AEAA41A4EEFB40ABF92AF924E01DD
:1026D00056EA851A5EEF950A9F928F923E0182EA32
:1026E000681A8EEF780A7F926F928EE593E09F933F
:1026F0008F93C456DE4F9881CC59D1409F93C556D5
:10270000DE4FA881CB59D140AF930E94A92CEDB7E1
:10271000FEB770960FB6F894FEBF0FBEEDBF0697DA
:1027200009F04FC0F30180819181A281B381C25E23
:10273000DE4F88839983AA83BB83CE51D140F401B5
:1027400080819181A281B381CE5DDE4F88839983A0
:10275000AA83BB83C252D140F50180819181A281BD
:10276000B381CA5DDE4F88839983AA83BB83C65237
:10277000D140F60180819181A281B381C65DDE4F97
:1027800088839983AA83BB83CA52D140F701808191
:102790009181A281B381C25DDE4F88839983AA8330
:1027A000BB83CE52D140F80180819181A281B38157
:1027B000CE5CDE4F88839983AA83BB83C253D1400A
:1027C0004EC3CA56DE4FF881C659D140FF93CB564F
:1027D000DE4F2881C559D1402F938E0103561F4FDC
:1027E0001F930F9385E793E09F938F93C456DE4F1B
:1027F0003881CC59D1403F93C556DE4F4881CB59E3
:10280000D1404F930E94A92CADB7BEB718960FB612
:10281000F894BEBF0FBEADBF0297E1F4F80180810E
:102820009181A281B381C251DF4F88839983AA83AA
:10283000BB83CE5ED040ED968CAD9DADAEADBFAD51
:10284000ED97CE50DF4F88839983AA83BB83C25F05
:10285000D04005C35F924F928EE793E09F938F9392
:10286000C456DE4FF881CC59D140FF93C556DE4F98
:102870002881CB59D1402F930E94A92C0F900F9003
:102880000F900F900F900F90019709F0A0C0CB5FB1
:10289000DE4F8881C550D1408F93CC5FDE4F888159
:1028A000C450D1408F93CD5FDE4F8881C350D1405B
:1028B0008F93CE5FDE4F8881C250D1408F93CF5F20
:1028C000DE4F8881C150D1408F93C050DF4F888147
:1028D000C050D1408F93C150DF4F8881CF5FD0402F
:1028E0008F93C250DF4F8881CE5FD0408F93C3500B
:1028F000DF4F8881CD5FD0408F93C450DF4F8881F8
:10290000CC5FD0408F93C550DF4F8881CB5FD040E4
:102910008F93C650DF4F8881CA5FD0408F93C750D6
:10292000DF4F8881C95FD0408F93C850DF4F8881C7
:10293000C85FD0408F93C950DF4F8881C75FD040B8
:102940008F93CA50DF4F8881C65FD0408F93CB50A2
:10295000DF4F8881C55FD0408F93CC50DF4F888197
:10296000C45FD0408F93CD50DF4F8881C35FD0408C
:102970008F93CE50DF4F8881C25FD0408F93CF506E
:10298000DF4F8881C15FD0408F93C051DF4F888176
:10299000C05FD0408F93C151DF4F8881CF5ED04060
:1029A0008F93C251DF4F8881CE5ED0408F9383E8F2
:1029B00093E09F938F930E9472224DB75EB7465E5D
:1029C0005F4F0FB6F8945EBF0FBE4DBF48C2C856EA
:1029D000DE4F5881C859D1405F93C956DE4F888178
:1029E000C759D1408F9388E993E09F938F93C45642
:1029F000DE4F9881CC59D1409F93C556DE4FA881B8
:102A0000CB59D140AF930E94A92C0F900F900F90FB
:102A10000F900F900F90019789F4CA5CDE4F2881C8
:102A200039814A815B81C653D140C855DE4F288326
:102A300039834A835B83C85AD14011C2C856DE4FDE
:102A40003881C859D1403F93C956DE4F4881C75994
:102A5000D1404F938EE993E09F938F93C456DE4FFE
:102A60005881CC59D1405F93C556DE4F8881CB59F0
:102A7000D1408F930E94A92C0F900F900F900F9030
:102A80000F900F90019789F4CA5CDE4F288139813D
:102A90004A815B81C653D140C356DE4F28833983B8
:102AA0004A835B83CD59D140DAC1CC56DE4F3881A1
:102AB000C459D1403F93CD56DE4F4881C359D140D0
:102AC0004F938E010E591E4F1F930F9384EA93E08C
:102AD0009F938F93C456DE4F5881CC59D1405F935A
:102AE000C556DE4F8881CB59D1408F930E94A92CC7
:102AF000ADB7BEB718960FB6F894BEBF0FBEADBF48
:102B0000029709F057C0F801E080F180F701339691
:102B1000EE0FFF1FEE0FFF1F2EEE30E02C0F3D1FBC
:102B2000E20FF31FCA52DF4F288139814A815B814E
:102B3000C65DD04060817181828193810E944E2761
:102B4000AB01BC01CA52DF4F488359836A837B8340
:102B5000C65DD0408E2D02D7C752DF4F8881C95D38
:102B6000D0408F93C852DF4F8881C85DD0408F938B
:102B7000C952DF4F8881C75DD0408F93CA52DF4F63
:102B80008881C65DD0408F93D80111968C911197A2
:102B90008F938C918F938DEA93E09F938F930E94F4
:102BA0007222EDB7FEB738960FB6F894FEBF0FBE8F
:102BB000EDBF55C1C856DE4FF881C859D140FF93CB
:102BC000C956DE4F2881C759D1402F93C656DE4FD4
:102BD0003881CA59D1403F93C756DE4F4881C95901
:102BE000D1404F9387EB93E09F938F93C456DE4F72
:102BF0005881CC59D1405F93C556DE4F8881CB595F
:102C0000D1408F930E94A92CADB7BEB718960FB6CE
:102C1000F894BEBF0FBEADBF029709F05BC0CC59A0
:102C2000DE4F88819981C456D1408234910508F0E5
:102C300016C1CA5CDE4F088119812A813B81C653C7
:102C4000D140FC01EE0FFF1FEE0FFF1FE95CFD4FAF
:102C500000831183228333838231910508F0FFC002
:102C600063E070E00E94102744E18130910591F00B
:102C7000029701F1469FC001479F900D1124E1E0AA
:102C8000F0E0EC0FFD1FE80FF91F00831183228392
:102C90003383E5C0469FC001479F900D1124E1E0BA
:102CA000F0E0EC0FFD1FE80FF91F04831583268366
:102CB0003783D5C0469FC001479F900D1124E1E0A6
:102CC000F0E0EC0FFD1FE80FF91F00871187228746
:102CD0003387C5C0C656DE4FB881CA59D140BF93AD
:102CE000C756DE4FE881C959D140EF9380EC93E09D
:102CF0009F938F93C456DE4FF881CC59D140FF93F8
:102D0000C556DE4F2881CB59D1402F930E94A92C64
:102D10000F900F900F900F900F900F90019779F5F3
:102D2000CC59DE4F88819981C456D14085309105B8
:102D300008F095C00E941B1FCC59DE4F88819981F5
:102D4000C456D14025E0289F8001299F100D1124F1
:102D50004DEB50E04C0F5D1F040F151F81E0D801B3
:102D60008C930E941E1FDC01CB0188519C4FAF4FFA
:102D7000BF4FF80181839283A383B48370C0CE01D7
:102D80008A599E4F9F938F9386EC93E09F938F93E6
:102D9000C456DE4FF881CC59D140FF93C556DE4F63
:102DA0002881CB59D1402F930E94A92C0F900F90CE
:102DB0000F900F900F900F90019709F050C0C65ED2
:102DC000DE4F688179818A819B81CA51D14020E0A0
:102DD00030E040E85FE30E943D2820E030E040EC36
:102DE0005FE30E944F2720E030E040E85FE30E946D
:102DF0003D2820E030E040E05FE30E944E27C65EC1
:102E0000DE4F688379838A839B83CA51D140CA5E2F
:102E1000DE4F688179818A819B81C651D14020E053
:102E200030E040E85FE30E943D2820E030E040ECE5
:102E30005FE30E944F2720E030E040E85FE30E941C
:102E40003D2820E030E040E05FE30E944E27CA5E6C
:102E5000DE4F688379838A839B83C651D14080E0AB
:102E600091E0C556DE4FA881B981CB59D140FC0114
:102E70001D923197E9F7CB55DE4F3882C55AD140C4
:102E8000CD55DE4F19821882C35AD1400BC0CB55A5
:102E9000DE4F3882C55AD140CD55DE4F3983288365
:102EA000C35AD140CB55DE4F3880C55AD14089CB6B
:102EB000C251DF4F88819981AA81BB81CE5ED0400B
:102EC000CA5FDE4F88839983AA83BB83C650D140F3
:102ED000CE50DF4F88819981AA81BB81C25FD040EB
:102EE000C65FDE4F88839983AA83BB83CA50D140D3
:102EF000BE016A5F7E4FCE0185589E4F95D688E110
:102F0000FE01E558FE4FDE01AA5FBE4F01900D9213
:102F10008A95E1F788E1FE01EA5FFE4FDE01A251EA
:102F2000BF4F01900D928A95E1F7C355DE4F28817E
:102F300039814A815B81CD5AD140C650DF4F6881CB
:102F400079818A819B81CA5FD0400E944E27C650FA
:102F5000DF4F688379838A839B83CA5FD040C754DD
:102F6000DE4F08811981C95BD140A5E0EA2EF12C22
:102F7000B1E0EB1AF108A0F0D8018C91882369F038
:102F800011968D909D90AD90BC90149757D7861A4E
:102F9000970AA80AB90AB7FC9DC305501109E8CFE2
:102FA00042D6CB55DE4F8883C55AD140C455DE4F3B
:102FB000F881CC5AD140FF23A1F040D7CB54DE4F4B
:102FC000288139814A815B81C55BD140261B370B43
:102FD000480B590B57FF05C0C455DE4F1882CC5A19
:102FE000D140332009F47BC3CB55DE4F3881C55A1D
:102FF000D140311101C021D7C455DE4F4881CC5A90
:10300000D14041114FCFCB55DE4F5881C55AD140E9
:10301000552309F447CF88E1CD56DE4FA881B98109
:10302000C359D1401D928A95E9F7FE01E25EFE4F39
:10303000CF54DE4FF983E883C15BD1409E0122511A
:103040003F4FCD54DE4F39832883C35BD1408E017F
:103050000F5F1F4FAE014A525F4FCA55DE4F598373
:103060004883C65AD140CF55DE4F1882C15AD1404D
:10307000C356DE4F88809980AA80BB80CD59D1404D
:10308000B7FAB094B7F8B094CF54DE4FA881B981A5
:10309000C15BD1406D917D918D919D91CF54DE4F5B
:1030A000B983A883C15BD140CD54DE4FE881F9815B
:1030B000C35BD1402191319141915191CD54DE4F6B
:1030C000F983E883C35BD1400E944E27AB01BC016A
:1030D000C801E0D33B016C01CB01D601CA55DE4FDC
:1030E000E881F981C65AD14080839183A283B3835A
:1030F000CF55DE4FF881C15AD140F23090F5C3561A
:10310000DE4F288139814A815B81CD59D140B3019D
:10311000C6010E94F32818166CF014012501A501C0
:103120009401B301C6010E94BA2787FD17C013019D
:10313000260114C0C356DE4F2880CD59D140C25657
:10314000DE4F3880CE59D140C156DE4F4880CF592E
:10315000D140C056DE4F5880C05AD140C101D20183
:1031600035C0CF55DE4FF881C15AD140F230C1F59C
:103170002DEC3CEC4CE45EE3C356DE4F6881798174
:103180008A819B81CD59D1400E944F271B012C0180
:103190009B01AC01B301C6010E94F328181694F0FC
:1031A0002DEC3CEC4CE45EE3C501B4010E944E27DB
:1031B0001B012C019B01AC01B301C6010E94BA277F
:1031C00087FF02C031016201C301D601CA55DE4F3B
:1031D000E881F981C65AD14080839183A283B38369
:1031E000D80114964D905D906D907C9017971C9629
:1031F0002D913D914D915C911F97C301B2010E94A9
:10320000460A6B017C0120E030E040E85FEB0E9461
:10321000BA2787FF0EC0A301920160E070E080E84A
:103220009FEB0E94C127F80164877587868797877F
:1032300019C020E030E040E85FE3C701B6010E941A
:10324000F32818167CF4A301920160E070E080E896
:103250009FE30E94C127D8011C966D937D938D93A7
:103260009C931F97CF55DE4FB881C15AD140BF5FA5
:10327000CF55DE4FB883C15AD1400C5E1F4FCA559F
:10328000DE4FE881F981C65AD1403496CA55DE4FE7
:10329000F983E883C65AD140B63009F0F5CEC25161
:1032A000DF4F488059806A807B80CE5ED040CA5212
:1032B000DF4F88809980AA80BB80C65DD04020E027
:1032C00030E040E85FE3C501B4010E94F32818161E
:1032D000ACF020E030E040E85FEBC501B4010E94B3
:1032E000BA2787FD10C02EE034E74AED5BE3C50145
:1032F000B4010E94460A9B01AC0109C02EE034E7EC
:103300004AED5BE304C02EE034E74AED5BEBC3011A
:10331000B2010E944F27C251DF4F688379838A83AD
:103320009B83CE5ED040CE50DF4F488059806A806C
:103330007B80C25FD040C652DF4F88809980AA80D0
:10334000BB80CA5DD04020E030E040E85FE3C501CB
:10335000B4010E94F3281816ACF020E030E040E8F9
:103360005FEBC501B4010E94BA2787FD10C02EE0B3
:1033700034E74AED5BE3C501B4010E94460A9B01B4
:10338000AC0109C02EE034E74AED5BE304C02EE057
:1033900034E74AED5BEBC301B2010E944F27CE50E8
:1033A000DF4F688379838A839B83C25FD04020ED9F
:1033B0003FE049EC50E4CE5FDE4F688179818A813D
:1033C0009B81C250D1400E94460AC65BDE4F688393
:1033D00079838A839B83CA54D14020ED3FE049EC36
:1033E00050E4C250DF4F688179818A819B81CE5F32
:1033F000D0400E94460ACA5BDE4F688379838A8385
:103400009B83C654D14020ED3FE049EC50E4C650C8
:10341000DF4F688179818A819B81CA5FD0400E9499
:10342000460ACE5BDE4F688379838A839B83C254CE
:10343000D140BE0167587F4FCE018E5B9E4F0E94E8
:1034400060258CE0FE01EA52FF4FDE01AA5CBE4F10
:1034500001900D928A95E1F7F3E0EF2EEA94FFEFE9
:10346000EF1609F449C08E2D90E0E6EDF0E0EC0F88
:10347000FD1F24E0E29EE00DF11D11241082118257
:103480001282138273E0B72E8F016C01CC0CDD1C0D
:10349000C80ED91EBA94A6E3B1E0AC0FBD1F34E04C
:1034A000B39EA00DB11D1124F601EB0DF11DEE0F21
:1034B000FF1FEE0FFF1F49E750E04C0F5D1FE40FA9
:1034C000F51F20813181428153816D917D918D91D4
:1034D0009C910E94460A9B01AC01D8016D917D919F
:1034E0008D919C910E944F27F801608371838283A4
:1034F0009383B110CFCFB2CFBE0167587F4FCE01BB
:103500008E5B9E4F0E9487268CE0E6EDF0E0EC0F8C
:10351000FD1F3C96DE01AA5CBE4F01900D928A957C
:10352000E1F753E0B52EBA94FFEFBF1609F44DC092
:103530008B2D90E08C010D5F1F4F000F111F000FAE
:10354000111FE6EDF0E0EC0FFD1FE00FF11F108200
:1035500011821282138233E0E32E8F016C01CC0CB6
:10356000DD1CC80ED91EEA94A6E3B1E0AC0FBD1F66
:1035700024E0E29EA00DB11D1124F601EE0DF11D17
:10358000EE0FFF1FEE0FFF1F49E750E04C0F5D1FCE
:10359000E40FF51F20813181428153816D917D912E
:1035A0008D919C910E94460A9B01AC01D8016D91BE
:1035B0007D918D919C910E944F27F80160837183CA
:1035C00082839383E110CFCFAECF9E0123563F4F2E
:1035D000CF55DE4F39832883C15AD140A12CB12C5D
:1035E000C855DE4F288039804A805B80C85AD14058
:1035F00057FA509457F850949E012A523F4F490170
:10360000C12CD12CF12CE12C00E010E0D4016D9103
:103610007D918D919D914D01F501EC0DFD1DE158C0
:10362000FD4F20813181428153810E94460A9B01D6
:10363000AC016F2D7E2DC8010E944F27F62EE72E7C
:103640008C01B4E0CB0ED11CE8E1CE16D104F1F62A
:10365000C855DE4F288139814A815B81C85AD140E3
:103660000E94F32818168CF042013101A201910149
:103670006F2D7E2DC8010E94BA2787FD0EC08F2DA9
:103680009E2DD8013C014D0108C0C855DE4F688011
:1036900079808A809B80C85AD140CF55DE4FA8815F
:1036A000B981C15AD1406D927D928D929D92CF5534
:1036B000DE4FB983A883C15AD140B8E1AB0EB11C2B
:1036C000E0ECAE16B10409F097CFCE0183569F4FC0
:1036D00068D3E8CBC701B0D3D8011C925ECCCB55E0
:1036E000DE4FB881C55AD140BB2309F485CC1D8675
:1036F0001E861F86188A19A21AA21BA21CA21DAA26
:103700001EAA1FAA18AE2D961CAE1DAE1EAE1FAE71
:103710002D97A1961CAE1DAE1EAE1FAEA197E596CD
:103720001CAE1DAE1EAE1FAEE597CE5EDE4F2881ED
:1037300039814A815B81C251D140C355DE4F288314
:1037400039834A835B83CD5AD140CA5FDE4F1882EA
:1037500019821A821B82C650D140C65FDE4F188282
:1037600019821A821B82CA50D140C251DF4F18827F
:1037700019821A821B82CE5ED040CE50DF4F188253
:1037800019821A821B82C25FD040C65EDE4F6881FA
:1037900079818A819B81CA51D14020E030E040E8A4
:1037A0005FE30E943D2820E030E040EC5FE30E94B0
:1037B0004F2720E030E040E85FE30E943D2820E012
:1037C00030E040E05FE30E944E27C65EDE4F688334
:1037D00079838A839B83CA51D140CA5EDE4F688158
:1037E00079818A819B81C651D14020E030E040E858
:1037F0005FE30E943D2820E030E040EC5FE30E9460
:103800004F2720E030E040E85FE30E943D2820E0C1
:1038100030E040E05FE30E944E27CA5EDE4F6883DF
:1038200079838A839B83C651D14008D39B01AC0125
:103830002C563E4E4F4F5F4FCB54DE4F288339837B
:103840004A835B83C55BD14031E0C455DE4F38838A
:10385000CC5AD14027CBCF92DF92EF92FF920F93B9
:103860001F93E4E1DC011D92EA95E9F7FC01408336
:103870005183628373830483158326833783C086D1
:10388000D186E286F3861F910F91FF90EF90DF9033
:10389000CF9008954F925F926F927F928F929F92F6
:1038A000AF92BF92CF92DF92EF92FF92CF93DF93CE
:1038B000EC016A017B012C853D854E855F85C70142
:1038C000B6010E944F274B015C016C877D878E8774
:1038D0009F87288939894A895B89C701B6010E9477
:1038E0004E272B013C01C88AD98AEA8AFB8A2881A3
:1038F00039814A815B81C701B6010E94460A6B018A
:103900007C012C813D814E815F81C501B4010E9403
:10391000460A9B01AC01C701B6010E944F276B010B
:103920007C01288539854A855B85C301B2010E94E7
:10393000460A9B01AC01C701B6010E944F27DF91E7
:10394000CF91FF90EF90DF90CF90BF90AF909F907E
:103950008F907F906F905F904F900895833050F4D8
:1039600094E0899FF0011124E85FFD4F408351836B
:103970006283738308954F925F926F927F928F92CA
:103980009F92AF92BF92CF92DF92EF92FF920F93EE
:103990001F93CF93DF93CDB7DEB7EC970FB6F894B4
:1039A000DEBF0FBECDBF8C012A013B0120ED3FE001
:1039B00049EC50E4FC0164897589868997890E94E5
:1039C000460A6DA77EA78FA798AB20ED3FE049EC94
:1039D00050E4F80160897189828993890E94460ABE
:1039E00069A77AA78BA79CA720ED3FE049EC50E49C
:1039F000F80164857585868597850E94460A6DA3C2
:103A00007EA38FA398A7BE016F5F7F4FCE018596DF
:103A10000E94602582E090E091D280E090E08ED21A
:103A20006B017C0181E090E089D2905829E739EE62
:103A30004CE151E40E94460A29A13AA14BA15CA1A4
:103A40000E94460A20E030E0A9010E944F274B0166
:103A50005C01C701B601905829E739EE4CE151E409
:103A60000E94460A2D893E894F89588D0E94460A38
:103A70009B01AC01C501B4010E944F2729E739EE33
:103A80004CE151E40E944F276DAB7EAB8FAB98AFFA
:103A9000C0906E05D0906F05E0907005F0907105B4
:103AA0000E945E2560936E0570936F05809370058C
:103AB000909371056C197D098E099F090E94090A6E
:103AC00020E030E04AE754E40E94C1276B017C010A
:103AD00031D520916A0530916B0540916C0550916C
:103AE0006D0529AB3AAB4BAB5CAB20E030E046E672
:103AF00053E40E944E2720E030E048E452E40E9464
:103B0000C1272AE037ED43EA5CE30E94460A4B01F5
:103B10005C0129A93AA94BA95CA9C701B6010E9479
:103B2000460A9B01AC01C301B2010E944F2769AF55
:103B30007AAF8BAF9CAF20E030E040E05FE3C7019D
:103B4000B6010E94460AA70196010E94460A2DA9C5
:103B50003EA94FA958AD0E94460A9B01AC0169AD30
:103B60007AAD8BAD9CAD0E944F2728E431EE4AE739
:103B70005FE30E94460A9B01AC01C501B4010E94AB
:103B80004F274B015C01A30192010E944E27A70120
:103B900096010E94C1272AE037ED43EA5CE30E94C8
:103BA000460A2B013C012DA93EA94FA958ADC701DA
:103BB000B6010E94460A9B01AC0169A97AA98BA9AA
:103BC0009CA90E944F2728E431EE4AE75FE30E9458
:103BD000460A9B01AC01C301B2010E944F276093CA
:103BE0006A0570936B0580936C0590936D05F801E1
:103BF00080869186A286B386EC960FB6F894DEBFD7
:103C00000FBECDBFDF91CF911F910F91FF90EF902D
:103C1000DF90CF90BF90AF909F908F907F906F90EC
:103C20005F904F90089594C42F923F924F925F926D
:103C30006F927F928F929F92AF92BF92CF92DF92BC
:103C4000EF92FF920F931F93CF93DF9300D01F92B9
:103C5000CDB7DEB71C015B0188D188E1F501D10148
:103C600001900D928A95E1F72B823C8245018CE010
:103C7000880E911CE8E0F2E0FA83E98300E010E0AE
:103C8000EB81FC8164857585868597850E94FD287A
:103C90006B017C01C8013CD120E030E044EB53E4EF
:103CA0000E94C1279B01AC01C701B6010E944F27AA
:103CB0006B017C01EB81FC81648775878687978720
:103CC000F40121913191419151914F010E944E2770
:103CD0002B013C0120E030E040E05FEB0E94BA277E
:103CE00087FF09C020E030E040E85FE3C701B6018C
:103CF0000E944F2712C020E030E040E05FE3C301A4
:103D0000B2010E94F328181674F420E030E040E875
:103D10005FE3C701B6010E944E27EB81FC816487F7
:103D2000758786879787E981FA8121913191419141
:103D30005191FA83E983EB81FC81648575858685E1
:103D400097850E944E27EB81FC8164877587868763
:103D500097870F5F1F4F3496FC83EB830330110569
:103D600009F08ECFF5014085518562857385C101CB
:103D700002DEC1010F900F900F900F90DF91CF9155
:103D80001F910F91FF90EF90DF90CF90BF90AF9079
:103D90009F908F907F906F905F904F903F902F906B
:103DA0000895AF92BF92CF92DF92EF92FF920F935E
:103DB0001F93CF938C01C8E0C15098F1AC2EB12C69
:103DC000F80184E0C89FE00DF11D1124C080D1806E
:103DD000E280F38020E030E040E85FEBC701B6010D
:103DE0000E94BA2718168CF420E030E040E85FE328
:103DF000C701B6010E94F32887FD0DC0C12CD12C4C
:103E000080E8E82E8FE3F82E06C0C12CD12C90E874
:103E1000E92E9FEBF92EB701A601C50101969DD5AC
:103E2000CBCFCF911F910F91FF90EF90DF90CF906C
:103E3000BF90AF90BDC521C6FFC50AC43FC6EF9273
:103E4000FF921F93CF93DF93CDB7DEB7A4970FB642
:103E5000F894DEBF0FBECDBF13D376D38BEC93E0C7
:103E600068D384ED93E0ABD3CE0101967C0184E26C
:103E7000F70111928A95E9F719E0115070F0F701F6
:103E800084E0189FE00DF11D112440815181628171
:103E90007381812F90E061D5F0CF8CEC93E2D1D388
:103EA00081EE93E02ED2E7D1FDD186EB9FE163D284
:103EB000A8D504D660936E0570936F058093700546
:103EC00090937105A4960FB6F894DEBF0FBECDBFD8
:103ED000DF91CF911F91FF90EF9008959627092EC3
:103EE0000294202D2F702927692F6025660F607E90
:103EF0002627602D6927607F6695092E000C661FB6
:103F00009695969596959F7196279827822F089556
:103F1000CF93DF93EC01AFD2CC0FDD1FCC0FDD1FB1
:103F200099E1899FC00DD11D1124CE57DA4F6881C8
:103F300079818A819B81DF91CF910895CF93DF931F
:103F4000EC0199D22396CC0FDD1FCC0FDD1F99E138
:103F5000899FC00DD11D1124CE57DA4F6881798118
:103F60008A819B81DF91CF91089511C20F931F9396
:103F7000CF93DF931F921F92CDB7DEB780911602C9
:103F8000909117020E94F12BBC018F3F2FEF9207F7
:103F900009F468C1982FE0918005F0918105E73020
:103FA000F10508F05CC18827EC57FF4F8F4F6EC7B3
:103FB0000FEF1FEF980100937C0510937D05209370
:103FC0007E0530937F052091140230E0F901E4581A
:103FD000FA4F6083A9014F5F5F4F973039F043700C
:103FE00055274093140281E090E0FAC0F90133961E
:103FF000E370FF27E458FA4F8081853081F7F9019B
:104000003296E370FF27E458FA4F8081863239F701
:10401000FA01E370FF27E458FA4F80818111DFCF66
:1040200084E79BEB90937B0580937A0569837A8381
:104030001ED28093790580917805807880937805E9
:10404000698160937705C2C0953089F480917905C4
:1040500029E1829FC00111248E579A4F90937605D3
:1040600080937505109274051092730582C0983183
:1040700079F48091790529E1829FC00111248A5742
:104080009A4F909376058093750581E090E042C049
:10409000993171F480917905689FC0011124865788
:1040A0009A4F909376058093750582E090E032C038
:1040B000953179F48091790529E1829FC00111241D
:1040C0008A569A4F909376058093750583E090E029
:1040D00021C0963179F48091790529E1829FC00150
:1040E000112482579A4F909376058093750584E04A
:1040F00090E010C0973199F48091790529E1829F71
:10410000C00111248E569A4F9093760580937505C1
:1041100085E090E090937405809373052AC09F34E6
:1041200031F480917805982F9F7786FF06C0109212
:1041300081051092800510E092C090648078892BF0
:10414000809378056FE480917A0590917B05C6DEB7
:1041500090937B0580937A0584E090E041C0E091E4
:10416000790589E1E89FF0011124EE57FA4F608F3D
:1041700024C0809178058F7790E00090730502C08D
:10418000969587950A94E2F780FDD1CF84E08093DD
:10419000720534C081E090E00090730502C0880F82
:1041A000991F0A94E2F720917805822B982F9F7728
:1041B000822F8078892B8093780580917A05909161
:1041C0007B058CDE90937B0580937A058091770543
:1041D0009FEF980F90937705882321F182E090E07C
:1041E0009093810580938005A6CF80917205E09120
:1041F0007505F0917605E80FF11D608380917205D9
:104200009FEF980F90937205882321F280917A0591
:1042100090917B0563DE90937B0580937A0583E024
:1042200090E0DECF85E090E0DBCF80917A05909141
:104230007B0554DE90937B0580937A0586E090E0C1
:10424000CFCF80917A0590917B0548DE892B09F0CC
:104250006ECFF1D0109281051092800511E0812F70
:1042600090E002C08FEF9FEF0F900F90DF91CF9102
:104270001F910F91089520911602309117024DE081
:1042800050E061E070E083EF93E00E94672C21E052
:1042900030E00D9711F420E030E088279927821B49
:1042A000930B0895209116023091170245E050E0DB
:1042B00061E070E08EEE93E00E94672C21E030E038
:1042C000059711F420E030E088279927821B930B93
:1042D00008959091D00095FFFCCF8093D60080E0A8
:1042E00090E008958091D00087FFFCCF9091D0009E
:1042F0008091D60094FD02C090E008958EEF9FEF6C
:104300000895789489E190E09093D5008093D4004B
:10431000E0EDF0E08081808388E18093D100089512
:104320001F920F920FB60F9211240BB60F922F937C
:104330003F934F935F936F937F938F939F93AF932D
:10434000BF93EF93FF93E091CD05F091CE051995C2
:10435000FF91EF91BF91AF919F918F917F916F915D
:104360005F914F913F912F910F900BBE0F900FBE19
:104370000F901F9018959093CE058093CD05E1ED99
:10438000F0E080818068808380E090E008958091F3
:10439000D10087FF2DC08091D1008F778093D1000D
:1043A0008091150286FF1DC0809115028F7B80933E
:1043B00015028091150290911502990F990F907333
:1043C000282F2F7C922B9093150286958695982FF7
:1043D0009C7080911502837F892B8093150281E068
:1043E00001C080E09091D10090689093D100089531
:1043F0008091150286FF1DC0809115028F7B8093EE
:1044000015028091150290911502990F990F9073E2
:10441000282F2F7C922B9093150286958695982FA6
:104420009C7080911502837F892B8093150281E017
:10443000089580E0089580911502282F23709091AF
:1044400015029695969593708C7F892B8093150213
:10445000922F990F990F80911502837F892B80935A
:104460001502809115028064809315020895809151
:1044700015028370089580911502829583700895C6
:104480000E94D21026E040E855E260E070E08AE049
:1044900094E00E94C80C6EE672E280E090E00E9418
:1044A000A72B9093D2058093D10560E070E08CE853
:1044B00092E20E94A72B9093D0058093CF05089598
:1044C000DC01ED91FC910680F781E02D19958F3F7D
:1044D000BFEF9B0711F48EEF9FEF0895BC018AE0B8
:1044E00094E0EECFCF93DF93CDB7DEB7AE014A5F56
:1044F0005F4FFA0161917191AF018091CF05909169
:10450000D0050E940702DF91CF9108958091D105D7
:104510009091D2050C94F12B682F8AE094E00E94D0
:10452000820C21E030E0019711F420E030E0C90175
:104530000895089586E30E945710BC01990F880BD7
:10454000990B0C940B0A089560E08EE10C948A118B
:104550008EE10E94F51121E0892B09F020E0822FE5
:1045600008959091300195FFFCCF909131019F7B90
:1045700090933101109A80933601809131018064CB
:104580008093310180E090E008958091300187FFB1
:10459000FCCF909130018091360194FD02C090E0F3
:1045A00008958EEF9FEF08951F920F920FB60F920E
:1045B000112410980F900FBE0F901F9018957894AB
:1045C000089A80E190E09093350180933401E0E314
:1045D000F1E080818260808388E58093310181E110
:1045E0009AE7909399008093980008951F920F92F4
:1045F0000FB60F9211240BB60F922F933F934F9348
:104600005F936F937F938F939F93AF93BF93EF933A
:10461000FF93E091D305F091D4051995FF91EF91A7
:10462000BF91AF919F918F917F916F915F914F91CA
:104630003F912F910F900BBE0F900FBE0F901F90C8
:1046400018959093D4058093D30580E090E0089569
:10465000F894E1E3F1E080818F7D8083E1E7F0E091
:1046600080818D7F808378940895F894E1E3F1E070
:1046700080818F7D8083A1E7B0E08C918D7F8C93CA
:104680007894A1E9B0E08C91887F8C938091260288
:10469000282F2370909126029695969593708C7F83
:1046A000892B80932602922F990F990F80912602D1
:1046B000837F892B809326028091260280648093D9
:1046C000260280818062808308958091260286FF81
:1046D0001DC0809126028F7B809326028091260246
:1046E00090912602990F990F9073282F2F7C922B6F
:1046F0009093260286958695982F9C70809126022D
:10470000837F892B8093260281E0089580E00895BD
:10471000809126028370089580912602829583708D
:1047200008951F920F920FB60F9211240BB60F929D
:104730008F93EF93FF93E1E7F0E080818D7F80839B
:10474000E1E9F0E08081887F8083E1E3F1E080812E
:1047500080628083FF91EF918F910F900BBE0F903D
:104760000FBE0F901F9018958091260286FD13C0F2
:10477000809131018F7D80933101109295001092CC
:1047800094008091910084608093910080917100E9
:1047900082608093710008950F931F93CF93DF93EE
:1047A0002091DE053091DF052230310509F442C049
:1047B00068F42115310549F12130310509F0B7C000
:1047C0008091DD058F5F8093DD0521C023303105A9
:1047D00009F460C02430310509F0A9C09091D505D5
:1047E0004091D9055091DA056091DB057091DC05A7
:1047F000092E04C076956795579547950A94D2F788
:10480000D42F985F9093D50586C01092DD05E09176
:10481000DD05EA3038F4F0E0E050FC4FD08181E073
:1048200090E032C082E090E09093DF058093DE0557
:10483000DAEA2EC083E699EBAEECBAEE8093D905A6
:104840009093DA05A093DB05B093DC053EDF109270
:10485000D8051092D705D0E009C08091D705909176
:10486000D80501969093D8058093D7058091D705F8
:104870009091D8050997E0F51092D6058091D6055C
:10488000843058F783E090E09093DF058093DE0555
:10489000C0E04DC041DF2091D7053091D805F90126
:1048A00099E0899FE00DF11D1124EE0FFF1FEE0F1F
:1048B000FF1F8091D605E052FA4FE80FF11DD0811D
:1048C0006091D9057091DA058091DB059091DC0546
:1048D0004D2F6FD06093D9057093DA058093DB0577
:1048E0009093DC058091D6058F5F8093D605C6CF67
:1048F0006091D9057091DA058091DB059091DC0516
:104900007BD06093D9057093DA058093DB05909393
:10491000DC051092D5058091D505803218F484E02D
:1049200090E0B2CF1092DF051092DE05C1E06091F9
:104930002702709128028D2F90E091D7019619F0EF
:104940000C2F10E002C00FEF1FEFC1110DDFC801E7
:10495000DF91CF911F910F9108950F931F93CF93E4
:10496000DF9300D01F92CDB7DEB78C0149835A8305
:104970006B837C83CDDE99E0899F000D111D11248E
:10498000000F111F000F111FF801E052FA4F49816B
:104990005A816B817C8140835183628373830F9042
:1049A0000F900F900F90DF91CF911F910F9108956D
:1049B0005CCECF92DF92EF92FF92642729E02150E4
:1049C000B1F06B017C01F694E794D794C79460FF33
:1049D0000BC0C701B60130E2632733E8732738EB19
:1049E00083273DEE9327EBCFC701B601E8CFFF90B9
:1049F000EF90DF90CF900895609570958095909599
:104A00000895289A2A9AEBE0F1E080818160808302
:104A1000808184608083808180618083209A229A53
:104A2000EAE0F1E08081816080838081846080831E
:104A300080818061808308958230910581F028F41F
:104A4000009749F0019749F008958330910559F096
:104A5000049769F00895289A08952A9A08958091F4
:104A60000B01816007C080910B01846003C08091BD
:104A70000B01806180930B0108958230910581F0D4
:104A800028F4009749F0019749F008958330910583
:104A900059F0049769F00895289808952A98089580
:104AA00080910B018E7F07C080910B018B7F03C02B
:104AB00080910B018F7E80930B0108950C94C6109A
:104AC0002F923F924F925F926F927F928F929F921E
:104AD000AF92BF92CF92DF92EF92FF920F931F930C
:104AE000CF93DF93CDB7DEB768970FB6F894DEBFEC
:104AF0000FBECDBF8C011B01FC01C080D180E280C4
:104B0000F380C701B60173D32B013C01C701B60185
:104B100035D269837A838B839C83F801C480D580E6
:104B2000E680F780C701B60162D34B015C01C70183
:104B3000B60124D26D837E838F839887F801208508
:104B4000318542855385CA01B9012D8B3E8B4F8B30
:104B5000588F4DD36B017C012D893E894F89588D2B
:104B6000CA01B9010BD269877A878B879C87A30119
:104B700092010E94460A6D877E878F87988B2985D0
:104B80003A854B855C8569817A818B819C810E9405
:104B9000460A698B7A8B8B8B9C8B2D813E814F8152
:104BA000588569817A818B819C810E94460AF10136
:104BB0006083718382839383A30192016D817E81DF
:104BC0008F8198850E94460AF101648375838683EC
:104BD0009783D501C401B05880879187A287B38796
:104BE000A501940169817A818B819C810E94460A8A
:104BF000A70196010E94460A2D853E854F8558895A
:104C00004DD1F1016487758786879787A501940147
:104C1000C301B2010E94460AA70196010E94460AFA
:104C20009B01AC0169897A898B899C8938D1F10112
:104C3000608B718B828B938BA70196016D817E8136
:104C40008F8198850E94460AF101648B758B868B53
:104C5000978BA7019601C301B2010E94460A2B015E
:104C60003C01A501940169897A898B899C890E94FC
:104C7000460A9B01AC01C301B20111D1F101608F61
:104C8000718F828F938FA50194016D857E858F85AD
:104C900098890E94460A2B013C01A701960169816F
:104CA0007A818B819C810E94460A9B01AC01C301E1
:104CB000B201F4D0F101648F758F868F978F2985AB
:104CC0003A854B855C856D817E818F8198850E94B8
:104CD000460AF10160A371A382A393A368960FB65D
:104CE000F894DEBF0FBECDBFDF91CF911F910F9122
:104CF000FF90EF90DF90CF90BF90AF909F908F90FC
:104D00007F906F905F904F903F902F9008954F92BB
:104D10005F926F927F928F929F92AF92BF92CF924B
:104D2000DF92EF92FF920F931F93CF93DF9300D008
:104D30001F92CDB7DEB77C018B01FC01848095808A
:104D4000A680B780C501B40152D269837A838B8370
:104D50009C83C501B40112D14B015C01F701C084F1
:104D6000D184E284F384C701B60141D22B013C0116
:104D7000C701B60103D16B017C019B01AC01C501E8
:104D8000B4010E94460AF801608371838283938391
:104D9000D301C201B05884839583A683B78310865C
:104DA000118612861386A3019201C501B4010E94E7
:104DB000460AF8016487758786879787C08AD18AF3
:104DC000E28AF38A148A158A168A178A89819A8157
:104DD000AB81BC81B058808F918FA28FB38F148E1E
:104DE000158E168E178E80E090E0A0E8BFE380A3BA
:104DF00091A3A2A3B3A30F900F900F900F90DF91F8
:104E0000CF911F910F91FF90EF90DF90CF90BF90C7
:104E1000AF909F908F907F906F905F904F9008958C
:104E2000AA1BBB1B51E107C0AA1FBB1FA617B707D0
:104E300010F0A61BB70B881F991F5A95A9F78095EC
:104E40009095BC01CD010895A1E21A2EAA1BBB1BAF
:104E5000FD010DC0AA1FBB1FEE1FFF1FA217B30746
:104E6000E407F50720F0A21BB30BE40BF50B661F5C
:104E7000771F881F991F1A9469F760957095809520
:104E800090959B01AC01BD01CF010895EE0FFF1F6E
:104E9000881F8BBF0790F691E02D19945058BB27BF
:104EA000AA2713D00C94C00A0E94B20A38F00E94BC
:104EB000B90A20F039F49F3F19F426F40C94AF0A94
:104EC0000EF4E095E7FB0C94A90AE92F0E94D10AA1
:104ED00058F3BA17620773078407950720F079F42F
:104EE000A6F50C94F30A0EF4E0950B2EBA2FA02D24
:104EF0000B01B90190010C01CA01A0011124FF2787
:104F0000591B99F0593F50F4503E68F11A16F04081
:104F1000A22F232F342F4427585FF3CF4695379580
:104F20002795A795F0405395C9F77EF41F16BA0B45
:104F3000620B730B840BBAF09150A1F0FF0FBB1FF3
:104F4000661F771F881FC2F70EC0BA0F621F731F3C
:104F5000841F48F4879577956795B795F7959E3F99
:104F600008F0B0CF9395880F08F09927EE0F97952A
:104F700087950895CAD008F481E00895FAD0E395A2
:104F800020C112D00C94C00A0E94B90A58F00E94A5
:104F9000B20A40F029F45F3F29F00C94A90A51119C
:104FA0000C94F40A0C94AF0A0E94D10A68F3992376
:104FB000B1F3552391F3951B550BBB27AA27621715
:104FC0007307840738F09F5F5F4F220F331F441F22
:104FD000AA1FA9F335D00E2E3AF0E0E832D0915056
:104FE0005040E695001CCAF72BD0FE2F29D0660F43
:104FF000771F881FBB1F261737074807AB07B0E886
:1050000009F0BB0B802DBF01FF2793585F4F3AF08B
:105010009E3F510578F00C94A90A0C94F40A5F3F66
:10502000E4F3983ED4F3869577956795B795F79511
:105030009F5FC9F7880F911D9695879597F90895F9
:10504000E1E0660F771F881FBB1F62177307840795
:10505000BA0720F0621B730B840BBA0BEE1F88F7A4
:10506000E09508950E94B20A20F019F00E94B90A52
:1050700050F40C94AF0A0C94F40AE92F0E94D10A60
:1050800088F35523B1F3E7FB62177307840795078D
:10509000A8F189F3E92FFF2788232AF03197660FBB
:1050A000771F881FDAF7952F5527442332F0915048
:1050B0005040220F331F441FD2F7BB27E91BF50BCB
:1050C000621B730B840BB109B1F222F4620F731FE0
:1050D000841FB11D31972AF0660F771F881FBB1FF1
:1050E000EFCF915050405AF041F0882332F0660FD4
:1050F000771F881F91505040C1F793952AC086951D
:10510000779567959F5FD9F7F8CF990F0008550FEE
:10511000AA0BE0E8FEEF16161706E807F907C0F03D
:1051200012161306E407F50798F0621B730B840B45
:10513000950B39F40A2661F0232B242B252B21F41F
:1051400008950A2609F4A140A6958FEF811D811DBF
:1051500008959F3F31F0915020F48795779567959A
:10516000B795880F911D9695879597F908950C949A
:10517000AF0A0E94D90AD8F3E894E0E0BB279F5712
:10518000F0F02AED3FE049EC06C0EE0FBB0F661FC2
:10519000771F881F28F0B23A62077307840728F048
:1051A000B25A620B730B840BE3959A9572F78038B1
:1051B00030F49A95BB0F661F771F881FD2F790486F
:1051C000CACFEF93E0FF06C0A2EA2AED3FE049EC28
:1051D0005FEB7BDE0E94C00A0F90039401FC9058A5
:1051E000E6E1F1E02DC091DF08F48FEF08959F9381
:1051F000C0DF0F9007FCEE5FE4CF35D028F09F377B
:1052000010F40C94F40A01C0A4CF882371F477231E
:1052100021F09850872B762F07C0662311F4992729
:105220000DC09051862B70E060E02AF09A95660FD1
:10523000771F881FDAF7880F9695879597F9089555
:105240009F938F937F936F93FF93EF939B01AC0199
:105250000E94460AEF91FF911ED02F913F914F91EE
:105260005F910C94460A0E94D90AA0F0BEE7B917D4
:1052700088F4BB279F3860F41616B11D672F782F6E
:105280008827985FF7CF869577956795B11D939599
:105290009639C8F30895DF93CF931F930F93FF922E
:1052A000EF92DF927B018C01689406C0DA2EEF0149
:1052B0000E94520AFE01E894A591259135914591ED
:1052C0005591A6F3EF0101DEFE019701A801DA94E2
:1052D00071F7DF90EF90FF900F911F91CF91DF91C9
:1052E0000895CF93DF938230910510F482E090E02F
:1052F000E0914E06F0914F0620E030E0C0E0D0E0B3
:10530000309711F14081518148175907C0F0481773
:10531000590761F482819381209719F09B838A83D6
:105320002BC090934F0680934E0626C02115310561
:1053300019F04217530718F49A01BE01DF01EF017B
:105340000280F381E02DDCCF2115310509F1281B06
:10535000390B2430310590F412968D919C9113975E
:105360006115710521F0FB019383828304C0909342
:105370004F0680934E06FD01329644C0FD01E20FB8
:10538000F31F81939193225031092D933C933AC09E
:1053900020914C0630914D06232B41F420910202BE
:1053A0003091030230934D0620934C062091000269
:1053B000309101022115310541F42DB73EB74091DE
:1053C000040250910502241B350BE0914C06F0912C
:1053D0004D06E217F307A0F42E1B3F0B28173907E1
:1053E00078F0AC014E5F5F4F2417350748F04E0F41
:1053F0005F1F50934D0640934C068193919302C0DA
:10540000E0E0F0E0CF01DF91CF9108950F931F937B
:10541000CF93DF93009709F48CC0FC01329713827D
:10542000128200914E0610914F060115110581F46C
:1054300020813181820F931F20914C0630914D06BF
:105440002817390779F5F0934D06E0934C0671C0A3
:10545000D80140E050E0AE17BF0750F412962D91EE
:105460003C911397AD012115310509F1D901F3CF15
:105470009D01DA013383228360817181860F971F3A
:105480008217930769F4EC0128813981260F371FB1
:105490002E5F3F4F318320838A819B819383828358
:1054A000452B29F4F0934F06E0934E0642C0139625
:1054B000FC93EE931297ED01499159919E01240FAF
:1054C000351FE217F30771F480819181840F951FD6
:1054D000029611969C938E938281938113969C934E
:1054E0008E931297E0E0F0E0D80112968D919C9196
:1054F0001397009719F0F8018C01F6CF8D919C91CC
:1055000098012E5F3F4F820F931F20914C063091E0
:105510004D062817390769F4309729F410924F0681
:1055200010924E0602C01382128210934D06009311
:105530004C06DF91CF911F910F910895283008F00C
:1055400027E03327DA01990F311D87FD916000961E
:105550006105710539F432602E5F3D9330E32A9581
:10556000E1F708959F3F30F080387105610509F03B
:105570003C5F3C5F3D93913008F08068911DDF9364
:10558000CF931F930F93FF92EF92192F987F9695C9
:10559000E92F96959695E90FFF27EC5FFC4F992729
:1055A0003327EE24FF24A701E70105900894079410
:1055B00028F4360FE71EF81E491F511D660F771F8E
:1055C000881F991F0694A1F70590079428F4E70E09
:1055D000F81E491F561FC11D770F881F991F661F90
:1055E0000694A1F70590079428F4F80E491F561F5A
:1055F000C71FD11D880F991F661F771F0694A1F73B
:105600000590079420F4490F561FC71FD81F990F04
:10561000661F771F881F0694A9F78491109517704D
:1056200041F0D695C79557954795F794E7941A9505
:10563000C1F7EAEAF2E06894159015913591659109
:10564000959105907FE27395E118F10A430B560B93
:10565000C90BD009C0F7E10CF11E431F561FC91F2B
:10566000D01D7EF4703311F48A95E6CFE894015092
:1056700030F0080F0AF40027021708F4202F2395B2
:10568000022F7A3328F079E37D932A95E9F710C049
:105690007D932A9589F60694979567953795179582
:1056A0001794E118F10A430B560BC90BD00998F077
:1056B00023957E9173957A3308F070E37C932013E1
:1056C000B8F77E9170617D9330F0839571E37D939F
:1056D00070E32A95E1F71124EF90FF900F911F914D
:1056E000CF91DF91992787FD909508959111E4C19D
:1056F000803219F089508550D0F70895911108959E
:1057000081548A5108F4805E855A0895FC01059001
:10571000061621F00020D9F7C00108953197CF0176
:105720000895FC010590615070400110D8F78095F4
:1057300090958E0F9F1F0895FC016150704001905D
:105740000110D8F7809590958E0F9F1F08950F93A5
:105750001F93CF93DF93009731F46115710519F40E
:1057600080E090E039C08B01EC016EE070E081E0F8
:1057700090E088D1FC01892B99F380E8838301159F
:10578000110571F01387028781E8838380915006A9
:1057900090915106892B21F4F0935106E093500625
:1057A0002097C9F0D187C0878381826083838091ED
:1057B000520690915306892B71F4F0935306E093AF
:1057C00052068091540690915506892B21F4F0934E
:1057D0005506E0935406CF01DF91CF911F910F91B1
:1057E0000895CF93DF93EC012B8120FF33C026FF78
:1057F0000AC02F7B2B838E819F8101969F838E838E
:105800008A8190E029C022FF0FC0E881F981808160
:10581000082E000C990B009719F420622B831AC0F4
:105820003196F983E8830EC0EA85FB85199597FFC9
:1058300009C02B81019611F080E201C080E1822B2A
:105840008B8308C02E813F812F5F3F4F3F832E8384
:10585000992702C08FEF9FEFDF91CF9108950F93AB
:105860001F93CF93DF93FB01238121FD03C08FEFB3
:105870009FEF28C022FF16C04681578124813581C1
:105880004217530744F4A081B1819D012F5F3F4F20
:10589000318320838C93268137812F5F3F4F37835D
:1058A000268310C0EB01092F182F0084F185E02D0D
:1058B0001995892BE1F68E819F8101969F838E83B6
:1058C000812F902FDF91CF911F910F9108958F928B
:1058D0009F92AF92BF92CF92DF92EF92FF920F937F
:1058E0001F93CF93DF935B014A017901D90113968E
:1058F0002C9121FF1DC0C0E0D0E0C815D905D9F01A
:105900008C016C01CA0CDB1CC8010C151D0571F063
:105910000F5F1F4FD7011896ED91FC911997B701B2
:10592000DC018C911995892B79F305C02196E5CF7F
:1059300080E090E001C0CE01DF91CF911F910F91E7
:10594000FF90EF90DF90CF90BF90AF909F908F909F
:105950000895CF93DF93CDB7DEB72E970FB6F894A7
:10596000DEBF0FBECDBF85E08C838C899D899A8375
:105970008983AE01485E5F4F6E897F89CE010196B3
:105980000E94C3082E960FB6F894DEBF0FBECDBF9F
:10599000DF91CF910895FB01238120FF12C026FDE6
:1059A00010C08F3F3FEF930761F082832F7D20640B
:1059B0002383268137812150310937832683992714
:1059C00008958FEF9FEF0895FA01AA27283051F12B
:1059D000203181F1E8946F936E7F6E5F7F4F8F4F20
:1059E0009F4FAF4FB1E03ED0B4E03CD0670F781F7F
:1059F000891F9A1FA11D680F791F8A1F911DA11D64
:105A00006A0F711D811D911DA11D20D009F468949C
:105A10003F912AE0269F11243019305D3193DEF644
:105A2000CF010895462F4770405D4193B3E00FD0FA
:105A3000C9F7F6CF462F4F70405D4A3318F0495DE5
:105A400031FD4052419302D0A9F7EACFB4E0A695C8
:105A50009795879577956795BA95C9F700976105EA
:105A6000710508959B01AC010A2E06945795479540
:105A700037952795BA95C9F7620F731F841F951F35
:105A8000A01D08950F931F93CF93DF93869F8001EE
:105A9000879F100D969F100D1124C80122DCEC0188
:105AA000009721F0A80160E070E009D0CE01DF91FD
:105AB000CF911F910F910895992788270895DC01B0
:105AC00001C06D9341505040E0F70895F894FFCF26
:105AD000000056062000FF01000000003509DEBA74
